:0A0E0A00252E316600252E3066000B
:040D46007F057E00A7
:100D4A00E4FDFCC3ED9FEC9E5015E4FBFA0BBB00DF
:0F0D5A00010AEB646E4A70F50DBD00010C80E4D8
:010D69002267
:0B0DE900EF1FAC0670011E4C70F622DC
:100C3600120D6A120D46120D6A120D46120D6A1237
:100C46000D46E4FD7F0C120D6E120D46E4FD0F12EB
:100C56000D6E120D46E4FD7F0C120D6E7F057E00B3
:030C6600020D4A32
:100BFF008F618D628B638A6489657D20E4FF120D9E
:100C0F006EAD62AF61120DA5AB63AA64A965120444
:100C1F00EEFD6012E4FF120D6E74012565F565E4BB
:070C2F003564F56480E22248
:100DA500ED7007EF2480F5668005EF24C0F566E455
:060DB500FDAF66020D6EA9
:0B0DF400120D46D2A7120D4AC2A72222
:040D6A00E4FD7F38ED
:100D6E008F677FC87E00120DE9E5677006D2A6AFC9
:0B0D7E00058004C2A6AF67120E14220D
:090E1400C2A5C2A78F80020DF4F3
:040C69008F538D54C4
:100C6D007564FF75650E75660A85586A85576985C1
:100C7D0056688555677B007A0079591205E67B0029
:0E0C8D007A007959AD54AF53120BFFE4FEFF0D
:010C9B002236
:040C9C008F298D2AE5
:100CA0007564FF75650E75660F852E6A852D6985DD
:100CB0002C68852B677B007A00792F1205E67B0074
:0E0CC0007A00792FAD2AAF29120BFFE4FEFF58
:010CCE002203
:100BC600C290C293E4FEC290EF30E704D292800254
:100BD600C292EF25E0FFD2900EBE08EAE4FEC29074
:100BE600ED30E704D2928002C292ED25E0FDD2906C
:080BF6000EBE08EAC290D29382
:010BFE0022D4
:100B8600E4FEC290C293430780FDC290EF30E704B3
:100B9600D2928002C292EF25E0FFD2900DBD08EA04
:100BA600E4FDC290EE25E0FE309105430601800388
:0F0BB6005306FED2900DBD08E9C290D293AF0650
:010BC500220D
:100B39007D167F01120BC67D3B7F02120BC67D9489
:100B49007F03120BC67D177F04120BC6E4FD7F05D8
:100B5900120BC67D027F0A120BC67D507F06120B4F
:100B6900C67D147F07120BC67DC07F08120BC67D98
:0D0B7900127F09120BC67D017F0B020BC617
:100D2000D293120B39120C367F21120B86AC077F3F
:100D300022120B86EFFEAD047C00E42DF515EC3E8F
:050D4000F514FEAF15E3
:010D4500228B
:100DBB00E4FDFCC3ED9FEC9E50070DBD00010C80C4
:010DCB00F235
:010DCC002204
:02000E003A00B6
:100AC600120B39120D89120C36D2B9120D208E1264
:100AD6008F1385120E85130F7F017E00120CD31221
:100AE6000D208E128F13851208851309C3E509950B
:100AF6000FF50BE508950EF50AAC0EAD0FE41200E6
:100B06002B8F588E578D568C55E4FDFF120C69D3EA
:100B1600E50F94E8E50E94034008120CCF75990290
:100B260080A9120CCF120CCF120CCF120CCFE4F509
:030B36009980980B
:040CCF007FC87E005C
:100CD300E4FDFCC3ED9FEE6480F8EC64809850154E
:100CE300E4FBFA0BBB00010AEB64964A70F50DBDF9
:050CF30000010C80DE91
:010CF80022D9
:100D8900C29FD29ED29CC299C298758920758DFD49
:0C0D9900758BFDC2ABD28ED2AFD2AC2263
:03002300020DFFCC
:0B0DFF00309802C298309902C299326D
:07000300D2AAD2AFD28A227B
:03001300020016D2
:0D001600C0E00511E51170020510D0E032C8
:03000B000209F9EE
:1009F900C0E0C0F0C083C082C0D075D000C000C0C4
:0D0A090001C002C003C004C005C006C00744
:100A1600C28C0524E52470020523758C00758A4C6A
:100A2600E52464144523707BF523F5240526E52685
:100A360070020525E5284527700FF52EF52DF52CB6
:100A4600F52B7D017F01120C9CAC25AD26EC120026
:100A56002B8F2E8E2D8D2C8C2B7D017F03120C9CC3
:100A66007BFF7A00790E7D017F02120BFFE526647B
:100A76003C4525702EF525F5260528E52870020546
:100A860027AC27FDEC12002B8F2E8E2D8D2C8C2B58
:100A96007D017F01120C9CE528640A45277004F548
:050AA60027F528D28CA9
:100AAB00D007D006D005D004D003D002D001D0009F
:0B0ABB00D0D0D082D083D0F0D0E03249
:100DCD00438901E4F58C758A4CD2A9D28CD2AF221D
:1000260075F020800E75F010800575F0087D007E55
:10003600007F003392D530D503120546EC334010CD
:10004600EF33FFEE33FEED33FDEC33FCD5F0ED225E
:0E005600E5F0247EA2D513CC92E7CDCEFF229A
:10058A00E5782464F8E60578227861301002786408
:10059A00E475F0011205540204EE2009EB7F2ED215
:1005AA00098018EF540F2490D43440D4FF300D0B37
:1005BA00EF24BFB41A0050032461FFE579600215E5
:1005CA0079057CE57C7002057B30100D7861E47555
:1005DA00F001120554EF020534020CF97403D2102B
:1005EA008003E4C210F5788B618A628963E4F57945
:1005FA00F57BF57CE57960077F201205C580F575E6
:10060A007AFFC20AC209C20BC20CC20EC20FC211C1
:10061A00120593FF700D3010057F001205D6AF7CCE
:10062A00AE7B22B4255FC2D5C20D120593FF24D03A
:10063A00B40A00501A75F00A787930D50508B6FF61
:10064A000106C6A426F620D5047002D20C80D9244D
:10065A00CFB41A00EF5004C2E5D20D0208C3D20A81
:10066A0080C6D20980C0D20B80BCD2D580BAD20E45
:10067A0080B47F201205C5200B077401B5790040AC
:10068A00F112058AFF1205C50205FED211D20F80AA
:10069A009512058AFB12058AFA12058AF94A4B70E5
:1006AA000679BA7A097BFF200B2EE579602A7E004B
:1006BA008E8275830012050760060EEE657A70F069
:1006CA00C2D5EBC0E0EAC0E0E9C0E0EE120923D0EF
:1006DA00E0F9D0E0FAD0E0FB1204EEFF60AAEBC02A
:1006EA00E0EAC0E0E9C0E01205C5D0E02401F9D093
:1006FA00E03400FAD0E0FBE57A0460DCD57AD980F0
:10070A0087D20B80A212090660F7E57A70010412FB
:10071A000064A97A600DE57A600914F57A1209ADC8
:10072A00EF60F3EA30E702F404C3995077EAF4255C
:10073A007A0430E701E404F57A800D12090660C1F3
:10074A00EA057A257A120064EA7877F630E701E456
:10075A00257A04D57A04200E0114120923E4C0E094
:10076A001209AD7877E6601320E70714F61205AD93
:10077A00802204F6D0E014C0E07F001205ADE57ACD
:10078A0060071205A4157A800B300E031205A4D057
:10079A00E00205FED0E00480C512090660A0E57AF1
:1007AA00041200647877EAF6E57A200E0260010402
:0507BA002404120923D4
:1007BF0074FF04C0E01209AD1205ADE57A200E02F8
:1007CF0060031205A4D0E0B57AE87F451205B7782B
:1007DF0077E67F2B30E7047F2DF404C0E01205C5C8
:1007EF00D0E075F00A84C0F01205AED0E01205AE6D
:1007FF000205FE791080027908C20FC2118008D25B
:10080F00D5790A8004790AC2D5E57A047002F57A9F
:10081F00E4FAFDFEFF12058AFC7B08200A1312057D
:10082F008AFD7B1030090A12058AFE12058AFF7BAA
:10083F0020EC3382D592D55013C3E43009069FFFC5
:10084F00E49EFEE4200A039DFDE49CFCE4CBF8C289
:10085F000AEC700CCFCECDCCE824F8F870F38017EB
:10086F00C3EF33FFEE33FEED33FDEC33FCEB33FB25
:10087F00994002FB0FD8E9EB300A05F8D0E0C448E5
:10088F00B20AC0E00AEC4D4E4F78207B0070C2EAEE
:10089F00B57A0040BCC0E0120925D0F0D0E0200AA4
:1008AF0004C4C0E0C4B20AC0F01205AED0F0D5F057
:1008BF00EB0205FE120564069B53080258066C4CAA
:1008CF0006684208064F080E44080E490681430881
:1008DF00145507454607A345070F4709DA50067019
:1008EF002D06742E06972B06782306952009C32A0A
:1008FF000630480000068FE57AB4FF03757A0612BA
:10090F00058AFC12058AFD12058AFE12058AFF78F8
:10091F0070020093790AA2D5200C14300E09B91079
:10092F00020404B9080104A2D5200F0250010420CB
:10093F000B68920BB579005034C0E07F20300C1952
:10094F007F30A20B720F720E500F12097CC20BC2B6
:10095F000FC20EC2117F30800F300E03E9C0E012BC
:10096F0005C5300E03D0E0F9D0E0B579CC300E17C5
:10097F007F30B9100C1205C57F58300D077F788076
:10098F0003B908031205C5300B057F2D0205C57F7E
:10099F00202011F87F2B200FF322920B80CF7F00A6
:1009AF00B4070050052470F8E6FF22286E756C6CB2
:1009BF002900D20A12058A300AF8C20A787930D58E
:1009CF000108F60206302D5043495812058A2403B8
:1009DF00B405004001E49009D5931205B6743A129C
:0A09EF0005B6D20C75790402080267
:10006400F920E72824F950037907E4F42402FB1863
:10007400DBFDE624FB5014E9600DE4F618E604F613
:0F008400B40A08E4F6D9F57401F60A22C2D522AF
:10009300ED33EC3392D5FA602AB4FF33EDC2E77B3C
:1000A300FF60067A0079B8E4227A0079C120D5048A
:1000B3007A0079BC224E614E002B494E46002D49F1
:1000C3004E4600E47A08F608DAFC7B00740722E85F
:1000D300C0E0ECC0E0EDC0E0EEC0E0EFC0E0EA75E8
:1000E300F010A4CAABF075F04DA42BFBE435F0FC83
:1000F300EA2410FAEB34C5FBEC34D9FCEDC2E7FF7C
:1001030075F056A4F42411C5F0F434C58FF0A42A75
:10011300E5F03BE43CF620E714120464D0E0FFD0A2
:10012300E0FED0E0FDD0E0FC1203978014F404124B
:100133000464D0E0FFD0E0FED0E0FDD0E0FC12028A
:100143008ED0E0F8E6FAEDD2E7CD33EC332482FB30
:10015300E4C3CF33CFCE33CECD33CD33DBF37B0705
:1001630075F00A846004F6081B0AE5F0F6088FF0C0
:10017300740AA4FFACF08EF0740AA42CFEACF05009
:10018300010C8DF0740AA42CFDE435F0F608DBDED7
:03019300740722CC
:100196000204D9E86480F8E933E83360110460F0BA
:1001A600ED33EC337009E8FCE9FDEAFEEBFF2204CF
:1001B60060DED3EB9FEA9EE99DE8C2E78CF0C2F7CA
:1001C60095F0400CE8CCF8E9CDF9EACEFAEBCFFB96
:1001D6001204A485D0F05804700320D5B3E8047047
:1001E600075002B2D50204E392D5EC0460F7E4CCE2
:1001F600C0E0C398F8603B94186008400DD0E0FB5F
:100206000204BBE4FBFAC9FC8028E830E406E4C932
:10021600FBE4CAFCE830E305E4C9CACBFCE85407B2
:100226006010F8C3E913F9EA13FAEB13FBEC13FCBD
:10023600D8F130F52FC3E49CFCEF9BFFEE9AFEED60
:1002460099FDD0E0FBEF4E4D4C701222DB03020409
:10025600E0EC2CFCEF33FFEE33FEED33FDED30E743
:10026600EB0204BBEF2BFFEE3AFEED39FDD0E0FBCF
:1002760050130BBB00030204E3ED13FDEE13FEEF78
:0802860013FFEC13FC0204BBA2
:10028E00EC4D6011E8497017ED33EC3304600DE46A
:10029E00FCFFFEFD22E933E8330470F80204D912A4
:1002AE0004A458046009E4CC2481500628500902A5
:1002BE0004E32840030204E0C0E0EB4A7044B98036
:1002CE0006D0E0FB0204CFEF4E701CBD8008EBFFA2
:1002DE00EAFEE9FD80EBE98DF0A4FEE5F00203777E
:1002EE00E9CDF9EAFEEBFFEF89F0A4FCE5F0CE894B
:1002FE00F0A42EFFE435F0CD89F0A42DFEE435F008
:10030E008067EF4E7005BD80D780C3EF8BF0A4AC35
:10031E00F0EE8BF0A42CFCE435F0F8EF8AF0A42C70
:10032E00E5F038FCE433CB8DF0A42CFCE5F03BF883
:10033E00EE8AF0A42CFCE5F038F8E433CF89F0A473
:10034E002CFCE5F038CF3400CE89F0A42FFFE5F079
:10035E003EFEE433C98DF0A42EFEE5F039CD8AF0D1
:10036E00A42FFFE5F03EFEE43DFD33D0E0FB500749
:10037E000BBB000F0204E3EC2CFCEF33FFEE33FE5D
:06038E00ED33FD0204BB8B
:100394000204E3EC5D046005E8590470030204D927
:1003A4001204A4580460F6EC4860F2EC7004FDFEFC
:1003B400FF22C860DB2481C85009C398600250063C
:1003C4000204E09850CAF582E9294B4A7005AB82D1
:1003D4000204CF75F0007C1A7880C3EF9BEE9AED8F
:1003E40099400DC3EF9BFFEE9AFEED99FDE842F0B4
:1003F400DC23ACF0D0E0FFD0E0FED0E0FDAB822007
:10040400E7101BEB60BAEC2CFCEF33FFEE33FEED90
:1004140033FD0204BBE803F830E705C0F075F000D3
:10042400EF2FFFEE33FEED33FD40B830E7C280AA74
:100434003F8000004120000042C80000447A0000D0
:10044400461C400047C35000497424004B18968052
:100454004CBEBC205A0E1BCA6753C21C749DC5AE49
:10046400FB60065407601C2323120492EB5438608B
:100474000912047E12048D12028EECF8EDF9EEFAE4
:10048400EFCB22EB12048D80F1543803241C90042A
:1004940034FE93FC0EEE93FD0EEE930ECE93FF22EC
:1004A400E9D2E7C933E833F892D5EDD2E7CD33EC9E
:0704B40033FC5002B2D52217
:1004BB00EC30E7100FBF000C0EBE00080DBD0004A2
:1004CB000BEB6014A2D5EB13FCED92E7FD2274FF4E
:1004DB00FCFDFEFF22E480F8A2D574FF13FC7D80A7
:0304EB00E480EFBB
:03000000020DDD11
:0C0DDD00787FE4F6D8FD75817C020AC620
:1004EE00BB010689828A83E0225002E722BBFE020C
:0904FE00E32289828A83E493223F
:10050700BB010CE58229F582E5833AF583E02250A9
:1005170006E92582F8E622BBFE06E92582F8E222F3
:0D052700E58229F582E5833AF583E493220D
:10053400BB010689828A83F0225002F722BBFE01A6
:02054400F322A0
:0E054600C3E49FFFE49EFEE49DFDE49CFC22C6
:10055400FAE6FB0808E6F925F0F618E6CA3AF622A8
:10056400D083D082F8E4937012740193700DA3A326
:1005740093F8740193F5828883E47374029368603A
:06058400EFA3A3A380DF3A
:100CF900EFB40A07740D120D04740A309811A899FB
:100D0900B8130CC2983098FDA899C298B811F6305A
:070D190099FDC299F5992232
:00000001FF
