:0901A8007E0012021F7F017E009F
:1001B100D3EF9400EE940040147D6E7C00ED1D7031
:0D01C100011CED4C70F7EF1F70E61E80E38F
:0101CE00220E
:10021F00C2A6C2A58F801201ADD2A71201ADC2A78F
:01022F0022AC
:10020C00AB07D2A6C2A51201AD8B80D2A71201AD4D
:03021C00C2A72254
:1001CF007F381201A87F0F1201A87F011201A87FAB
:1001DF00061201A87F801201A87F017E0012021F64
:0701EF007F017E000201B157
:0E0230001201CF12017D1201F612008F80F82C
:10008F007FC07E0012021F7F3012020C7F301202DF
:10009F000C7F2D12020C7F3012020C7F3012020CDB
:1000AF007F2D12020C7F3012020C7F3012020C7F58
:1000BF00807E0012021F7F3212020C7F3012020C60
:1000CF007F3012020C7F3012020C7F2D12020C7F38
:1000DF003012020C7F3012020C7F2D12020C7F3077
:1000EF0012020C7F3012020C7F8D7E0012021F7FD6
:0400FF003002020CBD
:0E023E0081838587898B8F80828486888A8C55
:09024C0007080000120202051669
:10014D00C2B500D2B5C2B6E4FEEF1392B4EFC3133D
:10015D00FFD2B600C2B6000EBE08EEE4FEED13925D
:0F016D00B4EDC313FDD2B600C2B6000EBE08EE4D
:01017C002260
:10010300C2B500C2B600D2B500E4FDEF1392B4EF5E
:10011300C313FFD2B600C2B6000DBD08EE00E4FD66
:10012300A2B4E433FFC43333335480FCEEC3134C23
:10013300FED2B600C2B6000DBD08E5C2B500D2B608
:0901430000C2B400D2B400AF0602
:01014C002290
:1001F600E4FBEB90023E93FF12010374082BF8A672
:05020600070BBB07ED32
:01020B0022D0
:10017D00E4FD7F8E12014DE4FBFAEB90024593FFF7
:10018D0074082BF8E6FD12014D0BBB00010AEB6460
:0B019D00074A70E67D807F8E02014D56
:03000000020003F8
:0C000300787FE4F6D8FD75810E02004AFB
:10000F00020230E493A3F8E493A34003F68001F2D5
:10001F0008DFF48029E493A3F85407240CC8C333F2
:10002F00C4540F4420C8834004F456800146F6DFC1
:10003F00E4800B010204081020408090024CE47E03
:10004F00019360BCA3FF543F30E509541FFEE493B6
:10005F00A360010ECF54C025E060A840B8E493A37D
:10006F00FAE493A3F8E493A3C8C582C8CAC583CAA8
:10007F00F0A3C8C582C8CAC583CADFE9DEE780BE60
:0102550000A8
:00000001FF
