:1000860012000312005C12005C12005C12005C7528
:0400960099FF80EF5F
:10000300C29FD29ED29CC299C298758920758DFDDC
:0C001300758BFDC2ABD28ED2AFD2AC22F6
:03002300020026B2
:10002600C0E0C0D0309825C298E599B4FF0375A00A
:1000360000E599B4FE0375A00FE599B4FC0375A01D
:10004600F0E599B4F00375A066859999309902C2D6
:0600560099D0D0D0E03289
:04005C007FC87E00DB
:10006000E4FDFCC3ED9FEE6480F8EC6480985015CD
:10007000E4FBFA0BBB00010AEB64C84A70F50DBD46
:0500800000010C80DE10
:010085002258
:0300000002009A61
:0C009A00787FE4F6D8FD7581080200862E
:00000001FF
