:080013000001000200030002DD
:04026D000218000172
:07026600C2B712000380FE85
:10000300438910D2AF758DFE758B35D2ABD28E225C
:03001B00020114CB
:10011400C0E0C0F0C083C082C0D075D000C000C0B1
:0D01240001C002C003C004C005C006C00732
:10013100780E7C007D007BFF7A0079137E007F08BA
:100141001200EE758DFE758B35050BE50B70020502
:100151000A64207004E50A6403703AF50AF50B0598
:100161000DE50D7002050C6402450C7028F50CF5C7
:100171000DE51725E0240EF8E6F51808E6F519E572
:10018100176403451670067516FF7517FF0517E509
:100191001770020516D3E5099519E5186480F8E58D
:1001A100086480985004D2B78002C2B70509E509F6
:0E01B10070020508642845087004F508F50979
:1001BF00D007D006D005D004D003D002D001D00094
:0B01CF00D0D0D082D083D0F0D0E0323E
:030000000201DA20
:0C01DA00787FE4F6D8FD7581190202213F
:10001E00E709F608DFFA8046E709F208DFFA803EC4
:10002E0088828C83E709F0A3DFFA8032E309F608B1
:10003E00DFFA8078E309F208DFFA807088828C8319
:10004E00E309F0A3DFFA806489828A83E0A3F608CD
:10005E00DFFA805889828A83E0A3F208DFFA804CA7
:10006E0080D280FA80C680D4806980F2803380107E
:10007E0080A680EA809A80A880DA80E280CA8033E7
:10008E0089828A83ECFAE493A3C8C582C8CCC5835F
:10009E00CCF0A3C8C582C8CCC583CCDFE9DEE7802F
:1000AE000D89828A83E493A3F608DFF9ECFAA9F0AE
:1000BE00EDFB2289828A83ECFAE0A3C8C582C8CC04
:1000CE00C583CCF0A3C8C582C8CCC583CCDFEADE1D
:1000DE00E880DB89828A83E493A3F208DFF980CC7F
:1000EE0088F0EF60010E4E60C388F0ED2402B40478
:1000FE000050B9F582EB2402B4040050AF2323451F
:06010E00822390006E73D5
:1001E600020266E493A3F8E493A34003F68001F2C7
:1001F60008DFF48029E493A3F85407240CC8C3331A
:10020600C4540F4420C8834004F456800146F6DFE8
:10021600E4800B010204081020408090026DE47E09
:10022600019360BCA3FF543F30E509541FFEE493DD
:10023600A360010ECF54C025E060A840B8E493A3A4
:10024600FAE493A3F8E493A3C8C582C8CAC583CACF
:10025600F0A3C8C582C8CAC583CADFE9DEE780BE87
:01027100008C
:00000001FF
