:0D0406000B143031323334353637383900BD
:100346001203BD120414C2A0D2A0120003C2A03030
:10035600A1FDD28C20A1FDC28C1202C21203A012F2
:1003660003A01203A01203A01203A01203A01203FB
:10037600A01203A01203A01203A01203A01203A04E
:100386001203A01203A01203A01203A01203A012CC
:0A03960003A01203A01203A080AE22
:1002C2007F011203F0AF8CEFFEAD8A7C00E42DF5C6
:1002D2000DEC3EF50CFCAD0DE41201197BE37AA5A1
:1002E200799B783C12000E1201528E0E8F0F7C0009
:1002F2007D641201D38E0A8F0BAE0EAF0F7C007D90
:10030200641201D3AA04AB057D0A7C00AF03AE02DE
:100312001201D38E128F137D0A7C00AF03AE02123C
:1003220001D38C1F8D207414250B1203D77414254E
:10033200131203D774142520F8E6FF1203DAE4F54A
:040342008CF58A228A
:0B041400758901E4F58CF58AD2A9225D
:03000B0002041FCD
:09041F00758C00758A00B295325B
:06000300E4FF0FBF64FCE6
:0100090022D4
:1003F0008F27C2A6C2A5C2A71203A0852780D2A7B5
:060400001203A0C2A722B6
:0303D700F8E6FF46
:1003DA008F27D2A6C2A5C2A71203A0852780D2A7BB
:0603EA001203A0C2A722CD
:1003BD00C2A6C2A5C2A77F381203F07F0E1203F0AA
:0A03CD007F061203F07F010203F027
:1003A000E4FFFEE4FDFC0DBD00010CED64C84C70E3
:0C03B000F50FBF00010EEF640A4E70E76D
:0103BC00221E
:10000E00EC4D6011E8497017ED33EC3304600DE4EC
:10001E00FCFFFEFD22E933E8330470F80201BE1244
:10002E00018958046009E4CC248150062850090245
:10003E0001C82840030201C5C0E0EB4A7044B980F4
:10004E0006D0E0FB0201B4EF4E701CBD8008EBFF42
:10005E00EAFEE9FD80EBE98DF0A4FEE5F00200F783
:10006E00E9CDF9EAFEEBFFEF89F0A4FCE5F0CE89CD
:10007E00F0A42EFFE435F0CD89F0A42DFEE435F08A
:10008E008067EF4E7005BD80D780C3EF8BF0A4ACB8
:10009E00F0EE8BF0A42CFCE435F0F8EF8AF0A42CF3
:1000AE00E5F038FCE433CB8DF0A42CFCE5F03BF806
:1000BE00EE8AF0A42CFCE5F038F8E433CF89F0A4F6
:1000CE002CFCE5F038CF3400CE89F0A42FFFE5F0FC
:1000DE003EFEE433C98DF0A42EFEE5F039CD8AF054
:1000EE00A42FFFE5F03EFEE43DFD33D0E0FB5007CC
:1000FE000BBB000F0201C8EC2CFCEF33FFEE33FEFE
:06010E00ED33FD0201A02B
:1001140075F020800E75F010800575F0087D007E66
:10012400007F003392D530D503120228EC334010FF
:10013400EF33FFEE33FEED33FDEC33FCD5F0ED226F
:0E014400E5F0247EA2D513CC92E7CDCEFF22AB
:10015200EDD2E7CD33EC3392D524814006E4FFFEA5
:10016200FDFC22FCE4CFCECDCC24E0501174FF8004
:10017200EDC3CC13CCCD13CDCE13CECF13CF0470A1
:07018200F030D5DE02022877
:10018900E9D2E7C933E833F892D5EDD2E7CD33ECBC
:0701990033FC5002B2D52235
:1001A000EC30E7100FBF000C0EBE00080DBD0004C0
:1001B0000BEB6014A2D5EB13FCED92E7FD2274FF6C
:1001C000FCFDFEFF22E480F8A2D574FF13FC7D80C5
:0301D000E480EFD9
:03000000020236C3
:0C023600787FE4F6D8FD75812702027D78
:1001D300BC000BBE0029EF8DF084FFADF022E4CC10
:1001E300F875F008EF2FFFEE33FEEC33FCEE9DECD9
:1001F300984005FCEE9DFE0FD5F0E9E4CEFD22ED1F
:10020300F8F5F0EE8420D21CFEADF075F008EF2F68
:10021300FFED33FD4007985006D5F0F222C398FD59
:050223000FD5F0EA22F6
:0E022800C3E49FFFE49EFEE49DFDE49CFC22E7
:10024200020346E493A3F8E493A34003F68001F289
:1002520008DFF48029E493A3F85407240CC8C333BD
:10026200C4540F4420C8834004F456800146F6DF8C
:10027200E4800B0102040810204080900406E47E12
:10028200019360BCA3FF543F30E509541FFEE49381
:10029200A360010ECF54C025E060A840B8E493A348
:1002A200FAE493A3F8E493A3C8C582C8CAC583CA73
:1002B200F0A3C8C582C8CAC583CADFE9DEE780BE2B
:0104130000E8
:00000001FF
