:090003007E0012008A7F017E00DC
:10000C00D3EF9400EE940040147D6E7C00ED1D70D7
:0D001C00011CED4C70F7EF1F70E61E80E335
:0100290022B4
:10008A00C2A6C2A58F80120008D2A7120008C2A772
:01009A002243
:0C0051007F3012005D7F2D12005D7F30BB
:10005D00AB07D2A6C2A51200088B80D2A71200084A
:03006D00C2A72205
:10002A007F381200037F0F1200037F011200037F43
:10003A00061200037F801200037F017E0012008AED
:07004A007F017E0002000CA3
:1000700012002A7FC07E0012008A7F3012005D12BB
:0A00800000511200517F3002005DB4
:0300000002009B60
:0C009B00787FE4F6D8FD75810702007044
:00000001FF
