:10006A00E4F508F509D290C291D292C293F50C75C3
:07007A000D3212008180FE2F
:10008100758901758CB8758A0FD2AFD2A9D28C222D
:03000B0002000EE2
:10000E00C0E0C0D075D000C000758CB8758A0F05E1
:10001E000BE50B7002050AD3950DE50C6480F8E52F
:10002E000A6480985002D287D3E50B950DE50C64D7
:10003E0080F8E50A6480984002C287E50B64644547
:10004E000A7004F50AF50BE50B6432450A7006F5E5
:0C005E000AF50BB287D000D0D0D0E03201
:030000000200916A
:0C009100787FE4F6D8FD75810F02006A4C
:00000001FF
