:0D0152000B11303132333435363738390077
:06001400E4FF0FBF64FCD5
:01001A0022C3
:0501600012010C80FEFD
:0E000600438910758DFF758BFFD2ABD28E2211
:0300030002016592
:010165003267
:03001B000200AA36
:1000AA00C0E0C0F0C083C082C0D075D000C000C01C
:1000BA0001C002C003C004C005C006C007758DFF99
:1000CA00758BFFC28E7F3912013CD007D006D0054E
:1000DA00D004D003D002D001D000D0D0D082D083B7
:0500EA00D0F0D0E0326F
:100126008F22C2A6C2A5C2A71200EF852280D2A73F
:060136001200EFC2A72237
:10013C008F21D2A6C2A5C2A71200EF852180D2A71B
:06014C001200EFC2A72221
:10010C00C2A6C2A5C2A77F381201267F0E120126F5
:0A011C007F061201267F0102012672
:1000EF00E4FFFEE4FDFC0DBD00010CED64C84C7097
:0C00FF00F50FBF00010EEF640A4E70E721
:01010B0022D1
:0300000002001EDD
:0C001E00787FE4F6D8FD758122020065B1
:10002A00020160E493A3F8E493A34003F68001F28B
:10003A0008DFF48029E493A3F85407240CC8C333D7
:10004A00C4540F4420C8834004F456800146F6DFA6
:10005A00E4800B0102040810204080900152E47EE3
:10006A00019360BCA3FF543F30E509541FFEE4939B
:10007A00A360010ECF54C025E060A840B8E493A362
:10008A00FAE493A3F8E493A3C8C582C8CAC583CA8D
:10009A00F0A3C8C582C8CAC583CADFE9DEE780BE45
:01015F00009F
:00000001FF
