:05000300252E3166000E
:040DA2007F057E004B
:100DA600E4FDFCC3ED9FEC9E5015E4FBFA0BBB0083
:0F0DB600010AEB646E4A70F50DBD00010C80E47C
:010DC500220B
:0B0EA400EF1FAC0670011E4C70F62220
:100CEF00120E08120DA2120E08120DA2120E0812E9
:100CFF000DA2E4FD7F0C120E0C120DA2E4FD0F12DB
:100D0F000E0C120DA2E4FD7F0C120E0C7F057E005F
:030D1F00020DA61C
:100CB8008F308D318B328A3389347D20E4FF120ED8
:100CC8000CAD31AF30120E43AB32AA33A934120443
:100CD800EEFD6012E4FF120E0C74012534F534E4C5
:070CE8003533F53380E222F1
:100E4300ED7007EF2480F5358005EF24C0F535E418
:060E5300FDAF35020E0C9C
:0B0EAF00120DA2D2A7120DA6C2A722AE
:040E0800E4FD7F384E
:100E0C008F4E7FC87E00120EA4E54E7006D2A6AFA0
:0B0E1C00058004C2A6AF4E120EBA22E1
:090EBA00C2A5C2A78F80020EAF91
:040D22008F228D236C
:100D26007533FF7534007535038527398526388573
:100D360025378524367B007A0079281206357B0014
:0E0D46007A007928AD23AF22120CB8E4FEFF2C
:010D5400227C
:100C7F00C290C293E4FEC290EF30E704D29280029A
:100C8F00C292EF25E0FFD2900EBE08EAE4FEC290BA
:100C9F00ED30E704D2928002C292ED25E0FDD290B2
:080CAF000EBE08EAC290D293C8
:010CB700221A
:100C3F00E4FEC290C293430780FDC290EF30E704F9
:100C4F00D2928002C292EF25E0FFD2900DBD08EA4A
:100C5F00E4FDC290EE25E0FE3091054306018003CE
:0F0C6F005306FED2900DBD08E9C290D293AF0696
:010C7E002253
:100BF2007D167F01120C7F7D3B7F02120C7F7D945C
:100C02007F03120C7F7D177F04120C7FE4FD7F05AA
:100C1200120C7F7D027F0A120C7F7D507F06120C20
:100C22007F7D147F07120C7F7DC07F08120C7F7DB1
:0D0C3200127F09120C7F7D017F0B020C7FE9
:100AC800D293120BF2120CEF7F21120C3F8F177F7B
:100AD80022120C3F8F16EFFE7C00E42517F515EC6B
:100AE8003EF5147F23120C3F8F177F24120C3F8F83
:100AF800167F25120C3FE4FDFEFBFA7901F812057A
:100B080046A804A905AA06AB07E516FEE4FCFD2BDA
:100B1800FBEA3EFAED39F9EC38F8E4FEEB2517FF6D
:100B2800EE3AFEED39FDEC388F138E128D11F5106B
:040B3800AE14AF1533
:010B3C002296
:100E6C00E4FDFCC3ED9FEC9E50070DBD00010C8012
:010E7C00F283
:010E7D002252
:10000E00120E27120CEFD2BC120E59120EC3E4F5CB
:05001E000EF50F80FE4D
:100E2700C29FD29ED29CC299C298758920758DFDAA
:0C0E3700758BFDC2ABD28ED2AFD2AC22C4
:03002300020B3D90
:100B3D00C0E0C0F0C083C082C0D075D000C000C07E
:100B4D0001C002C003C004C005C006C00730981F15
:100B5D00C298AF99750E008F0FAC0EAD0FEC120051
:100B6D002B8F278E268D258C24E4FDFF120D223030
:100B7D009902C299D28ED007D006D005D004D003E9
:100B8D00D002D001D000D0D0D082D083D0F0D0E030
:010B9D003225
:03000B00020A489E
:100A4800C0E0C0F0C083C082C0D075D000C000C074
:0D0A580001C002C003C004C005C006C007F5
:100A6500C28C054DE54D7002054C758CFF758AFEEF
:100A7500E50E7017E50F601324FE700FC2A47D64A8
:100A85007C00AF4DAE4C120DC6800B7D1E7C00AFB9
:100A95004DAE4C120B9EE54D64C8454C7008F54CA7
:080AA500F54DF50EF50FD28CA2
:100AAD00D007D006D005D004D003D002D001D0009D
:0B0ABD00D0D0D082D083D0F0D0E03247
:100D7C00E4FDFCC3ED9FEE6480F8EC6480985015A4
:100D8C00E4FBFA0BBB00010AEB64964A70F50DBD4F
:050D9C0000010C80DEE7
:010DA100222F
:090EC300C2A0D2A1C2A2D2A32256
:0D0E7E00D2A0C2A1D2A2C2A3D2A4D2B72298
:0D0E8B00C2A0C2A1C2A2C2A3D2A4D2B722AB
:100E5900438901E4F58CF58AD2AFD2A9D28CD2A408
:030E6900D2B722DB
:100DC600C2A4D3EF9DEC6480F8EE6480985002D202
:100DD600B7D3EF9DEC6480F8EE6480984002C2B70A
:010DE60022EA
:100DE700C2B7D3EF9DEC6480F8EE6480985002D2CE
:100DF700A4D3EF9DEC6480F8EE6480984002C2A40F
:010E070022C8
:100B9E00AB07AA06D3EF9414EE648094804008EF5E
:100BAE0024FEFBEE34FFFAD3EF9DEC6480F8EE6486
:100BBE0080985002D2B7D3EF9DEC6480F8EE64803B
:100BCE00984002C2B7D3EB9DEC6480F8EA6480983B
:100BDE005002D2A4D3EB9DEC6480F8EA6480984076
:030BEE0002C2A49C
:010BF10022E1
:1000260075F020800E75F010800575F0087D007E55
:10003600007F003392D530D503120595EC3340107E
:10004600EF33FFEE33FEED33FDEC33FCD5F0ED225E
:0E005600E5F0247EA2D513CC92E7CDCEFF229A
:1005D900E5472433F8E605472278303007027833B7
:1005E900E475F0011205A30204EE2000EB7F2ED280
:1005F900008018EF540F2490D43440D4FF30040BFA
:10060900EF24BFB41A0050032461FFE548600215C6
:1006190048054BE54B7002054A30070D7830E47503
:10062900F0011205A3EF020534020D557403D20738
:100639008003E4C207F5478B308A318932E4F548F3
:10064900F54AF54BE54860077F2012061480F575D9
:1006590049FFC201C200C202C203C205C206C208E2
:100669001205E2FF700D3007057F00120625AF4B1A
:10067900AE4A22B4255FC2D5C2041205E2FF24D0D6
:10068900B40A00501A75F00A784830D50508B6FF43
:100699000106C6A426F620D5047002D20380D92407
:1006A900CFB41A00EF5004C2E5D204020912D201F4
:1006B90080C6D20080C0D20280BCD2D580BAD20511
:1006C90080B47F201206142002077401B548004047
:1006D900F11205D9FF12061402064DD208D206807E
:1006E900951205D9FB1205D9FA1205D9F94A4B70A9
:1006F9000679097A0A7BFF20022EE548602A7E00E6
:100709008E8275830012050760060EEE654970F04A
:10071900C2D5EBC0E0EAC0E0E9C0E0EE120972D050
:10072900E0F9D0E0FAD0E0FB1204EEFF60AAEBC0DA
:10073900E0EAC0E0E9C0E0120614D0E02401F9D0F3
:10074900E03400FAD0E0FBE5490460DCD549D98002
:1007590087D20280A212095560F7E5497001041297
:100769000064A949600DE549600914F5491209FCBD
:10077900EF60F3EA30E702F404C3995077EAF4250D
:10078900490430E701E404F549800D12095560C1B7
:10079900EA05492549120064EA7846F630E701E49A
:1007A900254904D5490420050114120972E4C0E061
:1007B9001209FC7846E6601320E70714F61205FCD7
:1007C900802204F6D0E014C0E07F001205FCE54960
:1007D90060071205F31549800B3005031205F3D0A4
:1007E900E002064DD0E00480C512095560A0E54934
:1007F900041200647846EAF6E5492005026001041E
:05080900240412097235
:10080E0074FF04C0E01209FC1205FCE54920050244
:10081E0060031205F3D0E0B549E87F45120606786D
:10082E0046E67F2B30E7047F2DF404C0E012061459
:10083E00D0E075F00A84C0F01205FDD0E01205FD7F
:10084E0002064D791080027908C206C2088008D2CD
:10085E00D5790A8004790AC2D5E549047002F549B2
:10086E00E4FAFDFEFF1205D9FC7B082001131205E8
:10087E00D9FD7B1030000A1205D9FE1205D9FF7B77
:10088E0020EC3382D592D55013C3E43000069FFF7F
:10089E00E49EFEE42001039DFDE49CFCE4CBF8C243
:1008AE0001EC700CCFCECDCCE824F8F870F38017A5
:1008BE00C3EF33FFEE33FEED33FDEC33FCEB33FBD6
:1008CE00994002FB0FD8E9EB300105F8D0E0C4489F
:1008DE00B201C0E00AEC4D4E4F78207B0070C2EAA8
:1008EE00B5490040BCC0E0120974D0F0D0E0200140
:1008FE0004C4C0E0C4B201C0F01205FDD0F0D5F0C2
:10090E00EB02064D1205B306EA5308515806BB4CCE
:10091E0006B74208554F085D44085D4906D04308A6
:10092E00635507944607F245075E470A295006BFEE
:10093E002D06C32E06E62B06C72306E4200A122A2E
:10094E00067F48000006DEE549B4FF03754906122E
:10095E0005D9FC1205D9FD1205D9FE1205D9FF786D
:10096E003F020093790AA2D5200314300509B9106D
:10097E00020404B9080104A2D52006025001042085
:10098E0002689202B548005034C0E07F203003194F
:10099E007F30A20272067205500F1209CBC202C23C
:1009AE0006C205C2087F30800F300503E9C0E01291
:1009BE000614300503D0E0F9D0E0B548CC30051769
:1009CE007F30B9100C1206147F583004077F7880E0
:1009DE0003B908031206143002057F2D0206147F98
:1009EE00202008F87F2B2006F322920280CF7F0072
:1009FE00B407005005243FF8E6FF22286E756C6C94
:100A0E002900D2011205D93001F8C201784830D53B
:100A1E000108F602067F2D504349581205D92403CA
:100A2E00B405004001E4900A2493120605743A12AC
:0A0A3E000605D203754804020851B2
:10006400F920E72824F950037907E4F42402FB1863
:10007400DBFDE624FB5014E9600DE4F618E604F613
:0F008400B40A08E4F6D9F57401F60A22C2D522AF
:10009300ED33EC3392D5FA602AB4FF33EDC2E77B3C
:1000A300FF60067A0079B8E4227A0079C120D5048A
:1000B3007A0079BC224E614E002B494E46002D49F1
:1000C3004E4600E47A08F608DAFC7B00740722E85F
:1000D300C0E0ECC0E0EDC0E0EEC0E0EFC0E0EA75E8
:1000E300F010A4CAABF075F04DA42BFBE435F0FC83
:1000F300EA2410FAEB34C5FBEC34D9FCEDC2E7FF7C
:1001030075F056A4F42411C5F0F434C58FF0A42A75
:10011300E5F03BE43CF620E714120464D0E0FFD0A2
:10012300E0FED0E0FDD0E0FC1203978014F404124B
:100133000464D0E0FFD0E0FED0E0FDD0E0FC12028A
:100143008ED0E0F8E6FAEDD2E7CD33EC332482FB30
:10015300E4C3CF33CFCE33CECD33CD33DBF37B0705
:1001630075F00A846004F6081B0AE5F0F6088FF0C0
:10017300740AA4FFACF08EF0740AA42CFEACF05009
:10018300010C8DF0740AA42CFDE435F0F608DBDED7
:03019300740722CC
:100196000204D9E86480F8E933E83360110460F0BA
:1001A600ED33EC337009E8FCE9FDEAFEEBFF2204CF
:1001B60060DED3EB9FEA9EE99DE8C2E78CF0C2F7CA
:1001C60095F0400CE8CCF8E9CDF9EACEFAEBCFFB96
:1001D6001204A485D0F05804700320D5B3E8047047
:1001E600075002B2D50204E392D5EC0460F7E4CCE2
:1001F600C0E0C398F8603B94186008400DD0E0FB5F
:100206000204BBE4FBFAC9FC8028E830E406E4C932
:10021600FBE4CAFCE830E305E4C9CACBFCE85407B2
:100226006010F8C3E913F9EA13FAEB13FBEC13FCBD
:10023600D8F130F52FC3E49CFCEF9BFFEE9AFEED60
:1002460099FDD0E0FBEF4E4D4C701222DB03020409
:10025600E0EC2CFCEF33FFEE33FEED33FDED30E743
:10026600EB0204BBEF2BFFEE3AFEED39FDD0E0FBCF
:1002760050130BBB00030204E3ED13FDEE13FEEF78
:0802860013FFEC13FC0204BBA2
:10028E00EC4D6011E8497017ED33EC3304600DE46A
:10029E00FCFFFEFD22E933E8330470F80204D912A4
:1002AE0004A458046009E4CC2481500628500902A5
:1002BE0004E32840030204E0C0E0EB4A7044B98036
:1002CE0006D0E0FB0204CFEF4E701CBD8008EBFFA2
:1002DE00EAFEE9FD80EBE98DF0A4FEE5F00203777E
:1002EE00E9CDF9EAFEEBFFEF89F0A4FCE5F0CE894B
:1002FE00F0A42EFFE435F0CD89F0A42DFEE435F008
:10030E008067EF4E7005BD80D780C3EF8BF0A4AC35
:10031E00F0EE8BF0A42CFCE435F0F8EF8AF0A42C70
:10032E00E5F038FCE433CB8DF0A42CFCE5F03BF883
:10033E00EE8AF0A42CFCE5F038F8E433CF89F0A473
:10034E002CFCE5F038CF3400CE89F0A42FFFE5F079
:10035E003EFEE433C98DF0A42EFEE5F039CD8AF0D1
:10036E00A42FFFE5F03EFEE43DFD33D0E0FB500749
:10037E000BBB000F0204E3EC2CFCEF33FFEE33FE5D
:06038E00ED33FD0204BB8B
:100394000204E3EC5D046005E8590470030204D927
:1003A4001204A4580460F6EC4860F2EC7004FDFEFC
:1003B400FF22C860DB2481C85009C398600250063C
:1003C4000204E09850CAF582E9294B4A7005AB82D1
:1003D4000204CF75F0007C1A7880C3EF9BEE9AED8F
:1003E40099400DC3EF9BFFEE9AFEED99FDE842F0B4
:1003F400DC23ACF0D0E0FFD0E0FED0E0FDAB822007
:10040400E7101BEB60BAEC2CFCEF33FFEE33FEED90
:1004140033FD0204BBE803F830E705C0F075F000D3
:10042400EF2FFFEE33FEED33FD40B830E7C280AA74
:100434003F8000004120000042C80000447A0000D0
:10044400461C400047C35000497424004B18968052
:100454004CBEBC205A0E1BCA6753C21C749DC5AE49
:10046400FB60065407601C2323120492EB5438608B
:100474000912047E12048D12028EECF8EDF9EEFAE4
:10048400EFCB22EB12048D80F1543803241C90042A
:1004940034FE93FC0EEE93FD0EEE930ECE93FF22EC
:1004A400E9D2E7C933E833F892D5EDD2E7CD33EC9E
:0704B40033FC5002B2D52217
:1004BB00EC30E7100FBF000C0EBE00080DBD0004A2
:1004CB000BEB6014A2D5EB13FCED92E7FD2274FF4E
:1004DB00FCFDFEFF22E480F8A2D574FF13FC7D80A7
:0304EB00E480EFBB
:03000000020E9855
:0C0E9800787FE4F6D8FD75814E02000E54
:1004EE00BB010689828A83E0225002E722BBFE020C
:0904FE00E32289828A83E493223F
:10050700BB010CE58229F582E5833AF583E02250A9
:1005170006E92582F8E622BBFE06E92582F8E222F3
:0D052700E58229F582E5833AF583E493220D
:10053400BB010689828A83F0225002F722BBFE01A6
:02054400F322A0
:10054600E88FF0A4CC8BF0A42CFCE98EF0A42CFC54
:100556008AF0EDA42CFCEA8EF0A4CDA8F08BF0A4D2
:100566002DCC3825F0FDE98FF0A42CCD35F0FCEB31
:100576008EF0A4FEA9F0EB8FF0A4CFC5F02ECD39F6
:0F058600FEE43CFCEAA42DCE35F0FDE43CFC2263
:0E059500C3E49FFFE49EFEE49DFDE49CFC2277
:1005A300FAE6FB0808E6F925F0F618E6CA3AF62259
:1005B300D083D082F8E4937012740193700DA3A3D7
:1005C30093F8740193F5828883E4737402936860EB
:0605D300EFA3A3A380DFEB
:100D5500EFB40A07740D120D60740A309811A89942
:100D6500B8130CC2983098FDA899C298B811F630FE
:070D750099FDC299F59922D6
:00000001FF
