:07093400D2AFD288D2A82245
:0C000E007F067E827D6FDDFEDEFCDFFAE7
:01001A0022C3
:10037200E4F51DF51E7F46FE12085930B203020451
:100382007D751B03751CE820B218D3E51C9400E5AB
:100392001B9400400D120855E51C151C70E9151B35
:1003A20080E520B203020465751B01751CF430B2AE
:1003B20018D3E51C9400E51B9400400D120855E586
:1003C2001C151C70E9151B80E5E4F51AE4F5197596
:1003D2001B00751C3C20B218D3E51C9400E51B944D
:1003E20000400D120855E51C151C70E9151B80E52F
:1003F200751B01751CF430B22CD3E51C9400E51B6F
:1004020094004021120855051EE51E7002051DE5E7
:100412001C151C7002151BD3E51E941EE51D9400CD
:1004220040D4D2A8227433251AF8C000E6C313D0F0
:1004320000F6C3E51E9408E51D94004009743325B7
:100442001AF8E64480F6E4F51DF51E0519E519C310
:10045200940850030203D1051AE51AC39404500309
:100462000203CEE536F465356011E4F519743325DF
:0B04720019F8E4F60519E519B404F2CE
:01047D00225C
:1007450012086FE4F539F53AE5355401753B00F5C6
:100755003C2430FF120907E535C313F535053AE5A5
:100765003A70020539C39408E5396480948040D80D
:0807750012000E7F010208FDD5
:0809240012093412074580FBA3
:05000600AF357E002271
:040855007F017E00A1
:10085900EF1FAA0670011E4A600BE4FDEDC3940D5B
:0508690050EE0D80F7C8
:01086E002267
:0D08BE00C290D291C292D293D294D29522D0
:0D08CB00D290C291D292C293D294D29522C3
:0D08D800C290C291C292C293C294C29522F6
:10089D004C43445F74657374207375636365737340
:0108AD00004A
:0B07AC00C2A5C2A71207B78B80D2A71E
:1007B700E4FFFEE4FDFC0DBD00010CED64C84C70C8
:0C07C700F50FBF00010EEF640A4E70E752
:0107D3002203
:0A08FD00AB07C2A61207ACC2A72287
:0A090700AB07D2A61207ACC2A7226C
:10086F00C2A6C2A5C2A77F381208FD7F0E1208FDCF
:0A087F007F061208FD7F010208FD4C
:10077D0078087C007D007BFF7A08799D7E007F11D3
:10078D001202B312086F900000AF8274082FF8E6C2
:0F079D00FF120907A3E5826410458370EC80FE0C
:04091B000241000095
:1007D400751F007520501208BE12083A12047E8E4E
:1007E4001F8F20C3E520940AE51F64809480500382
:0807F4001208D81208E580DEAE
:03001B0002069446
:10069400C0E0C0F0C083C082C0D075D000C000C02C
:1006A40001C002C003C004C005C006C0071206157D
:1006B400D007D006D005D004D003D002D001D0009A
:0B06C400D0D0D082D083D0F0D0E03244
:03000B000206CF1B
:1006CF00C0E0C0F0C083C082C0D075D000C000C0F1
:1006DF0001C002C003C004C005C006C00712094F05
:1006EF00D007D006D005D004D003D002D001D0005F
:0B06FF00D0D0D082D083D0F0D0E03209
:0300030002070AE7
:10070A00C0E0C0F0C083C082C0D075D000C000C0B5
:10071A0001C002C003C004C005C006C007120372AC
:10072A00D007D006D005D004D003D002D001D00023
:0B073A00D0D0D082D083D0F0D0E032CD
:10088900438910758DFF758BFED2AFD2ABD28ED254
:0408990094D295223E
:1007FC00C3EF9DEC6480F8EE6480985002D295D3E0
:0F080C00EF9DEC6480F8EE6480984002C2952264
:10081B00C3EF9DEC6480F8EE6480985002D294D3C1
:0F082B00EF9DEC6480F8EE6480984002C2942246
:060949001208BE0208893D
:10061500758DFF758BFEE5004500601FD3E50094E1
:1006250000E500648094807D147C00AF44AE4340B7
:10063500051207FC800912081B8004D294D2950587
:1006450044E5447002054364C845437004F543F529
:010655004460
:010656002281
:10065700C3EF9DEC6480F8EE6480985002D295D386
:10066700EF9DEC6480F8EE6480984002C295C3EF7A
:100677009DEC6480F8EE6480985002D294D3EF9D8D
:0D068700EC6480F8EE6480984002C294227A
:08092C000001000200030002BB
:04091F00023D000194
:1008AE00438901D2AF758CFE758A35D2A9D28C22BE
:10059900782B7C007D007BFF7A09792C7E007F080F
:1005A9001202B3758CFE758A35052AE52A70020593
:1005B90029B4DC2EE529B40529E4F529F52AE54015
:1005C90025E0242BF8E6F53D08E6F53EE540640311
:1005D900453F700674FFF53FF5400540E540700260
:1005E900053FD3E528953EE53D6480F8E52764801D
:1005F900985004D2B78002C2B70528E528700205D1
:0B06090027642845277004F527F5281A
:0106140022C3
:07093B00C2B71208AE80FEF6
:10047E007F011208FDAF8DEFFEAD8B7C00E42DFFEA
:10048E00EC3EFEAD07FC1201297BE37AA5799B7841
:10049E003C12001E1201628E258F267C007D641296
:1004AE0002D9AB07AE25AF267C007D641202D97E41
:1004BE00007F0ACFCDCFCECCCE1202D98E238F2481
:1004CE00AE25AF267C007D641202D97E007F0ACF56
:1004DE00CDCFCECCCE1202D98C218D22AF03EF24FC
:1004EE0030FF120907E5242430FF120907E5222404
:0E04FE0030FF120907E4F58DF58BAE25AF2611
:01050C0022CC
:0B08F200438910E4F58DF58BD2AB229A
:06094200E4FF0FBF64FC9E
:01094800228C
:0A091100C2A0D2A0120942C2A02227
:10083A00C2A01208F212086F12091130A1FDD28E5D
:0B084A0020A1FDC28E12047E0208E512
:0C08E5007F0B7E827D6FDDFEDEFCDFFA03
:0108F10022E4
:06094F00E4F58DF58B229A
:10001E00EC4D6011E8497017ED33EC3304600DE4DC
:10002E00FCFFFEFD22E933E8330470F80201CE1224
:10003E00019958046009E4CC248150062850090225
:10004E0001D82840030201D5C0E0EB4A7044B980C4
:10005E0006D0E0FB0201C4EF4E701CBD8008EBFF22
:10006E00EAFEE9FD80EBE98DF0A4FEE5F002010762
:10007E00E9CDF9EAFEEBFFEF89F0A4FCE5F0CE89BD
:10008E00F0A42EFFE435F0CD89F0A42DFEE435F07A
:10009E008067EF4E7005BD80D780C3EF8BF0A4ACA8
:1000AE00F0EE8BF0A42CFCE435F0F8EF8AF0A42CE3
:1000BE00E5F038FCE433CB8DF0A42CFCE5F03BF8F6
:1000CE00EE8AF0A42CFCE5F038F8E433CF89F0A4E6
:1000DE002CFCE5F038CF3400CE89F0A42FFFE5F0EC
:1000EE003EFEE433C98DF0A42EFEE5F039CD8AF044
:1000FE00A42FFFE5F03EFEE43DFD33D0E0FB5007BC
:10010E000BBB000F0201D8EC2CFCEF33FFEE33FEDD
:06011E00ED33FD0201B00B
:1001240075F020800E75F010800575F0087D007E56
:10013400007F003392D530D50312030FEC33401007
:10014400EF33FFEE33FEED33FDEC33FCD5F0ED225F
:0E015400E5F0247EA2D513CC92E7CDCEFF229B
:10016200EDD2E7CD33EC3392D524814006E4FFFE95
:10017200FDFC22FCE4CFCECDCC24E0501174FF80F4
:10018200EDC3CC13CCCD13CDCE13CECF13CF047091
:07019200F030D5DE02030F7F
:10019900E9D2E7C933E833F892D5EDD2E7CD33ECAC
:0701A90033FC5002B2D52225
:1001B000EC30E7100FBF000C0EBE00080DBD0004B0
:1001C0000BEB6014A2D5EB13FCED92E7FD2274FF5C
:1001D000FCFDFEFF22E480F8A2D574FF13FC7D80B5
:0301E000E480EFC9
:0300000002050DE9
:0C050D00787FE4F6D8FD758144020554A7
:1001E300E709F608DFFA8046E709F208DFFA803EFE
:1001F30088828C83E709F0A3DFFA8032E309F608EB
:10020300DFFA8078E309F208DFFA807088828C8352
:10021300E309F0A3DFFA806489828A83E0A3F60806
:10022300DFFA805889828A83E0A3F208DFFA804CE0
:1002330080D280FA80C680D4806980F280338010B7
:1002430080A680EA809A80A880DA80E280CA803320
:1002530089828A83ECFAE493A3C8C582C8CCC58398
:10026300CCF0A3C8C582C8CCC583CCDFE9DEE78068
:100273000D89828A83E493A3F608DFF9ECFAA9F0E7
:10028300EDFB2289828A83ECFAE0A3C8C582C8CC3D
:10029300C583CCF0A3C8C582C8CCC583CCDFEADE56
:1002A300E880DB89828A83E493A3F208DFF980CCB8
:1002B30088F0EF60010E4E60C388F0ED2402B404B1
:1002C3000050B9F582EB2402B4040050AF23234558
:0602D30082239002337348
:1002D900C2D5EC30E709B2D5E4C39DFDE49CFCEE40
:1002E90030E715B2D5E4C39FFFE49EFE12031DC398
:1002F900E49DFDE49CFC800312031D30D507C3E493
:060309009FFFE49EFE22AE
:0E030F00C3E49FFFE49EFEE49DFDE49CFC22FF
:100519000207D4E493A3F8E493A34003F68001F21D
:1005290008DFF48029E493A3F85407240CC8C333E3
:10053900C4540F4420C8834004F456800146F6DFB2
:10054900E4800B010204081020408090091BE47E1E
:10055900019360BCA3FF543F30E509541FFEE493A7
:10056900A360010ECF54C025E060A840B8E493A36E
:10057900FAE493A3F8E493A3C8C582C8CAC583CA99
:10058900F0A3C8C582C8CAC583CADFE9DEE780BE51
:0109230000D3
:10031D00BC000BBE0029EF8DF084FFADF022E4CCC4
:10032D00F875F008EF2FFFEE33FEEC33FCEE9DEC8D
:10033D00984005FCEE9DFE0FD5F0E9E4CEFD22EDD3
:10034D00F8F5F0EE8420D21CFEADF075F008EF2F1D
:10035D00FFED33FD4007985006D5F0F222C398FD0E
:05036D000FD5F0EA22AB
:00000001FF
