:09062B00C290D291C292D2932236
:09063400D290C291D292C293222D
:05000600C294C2952226
:1005DD001205811205EFC2A07F351205B17F3502DC
:0205ED0005B156
:03000B000204B933
:1004B900C0E0C0F0C083C082C0D075D000C000C009
:1004C90001C002C003C004C005C006C007758CFF87
:1004D900758AFEE526640145257F1E7006FE120514
:1004E9001E80057E001205410520E5207002051FCA
:1004F90064C8451F7004F51FF520D007D006D00544
:10050900D004D003D002D001D000D0D0D082D08383
:05051900D0F0D0E0323B
:03001B0002063D9D
:07063D00758D00758B003282
:03000300020246B0
:10024600C0E0C0F0C083C082C0D075D000C000C07E
:0D02560001C002C003C004C005C006C007FF
:100263007521007522007F467E001205C730B20358
:1002730002037A7531037532E820B21CD3E5329458
:1002830000E531940040117F017E001205C7E5327D
:10029300153270E5153180E120B20302036E75312A
:1002A300017532F430B21CD3E5329400E531940089
:1002B30040117F017E001205C7E532153270E51546
:1002C3003180E1753000752F0075310075323C20A7
:1002D300B21CD3E5329400E531940040117F017ED6
:1002E300001205C7E532153270E5153180E175312D
:1002F300017532F430B233D3E5329400E531940022
:1003030040287F017E001205C70522E52270020501
:1003130021E532153270021531D3E522941EE52111
:100323006480948040CED2A8804D74192530F8C0E3
:1003330000E6C313D000F6C3E5229408E5216480E8
:100343009480400974192530F8E64480F67521003D
:10035300752200052FE52FC3940850030202CC0534
:1003630030E530C3940450030202C9E51CF4651B55
:0703730060057F781205B15F
:10037A00D007D006D005D004D003D002D001D000D7
:0B038A00D0D0D082D083D0F0D0E03281
:1005EF00438901758CFF758AFED2AFD2A9D28C22B6
:10051E00C3E5209FEE6480F8E51F6480985002D2F8
:10052E0095D3E5209FEE6480F8E51F648098400225
:03053E00C2952241
:10054100C3E5209FEE6480F8E51F6480985002D2D5
:1005510094D3E5209FEE6480F8E51F648098400203
:03056100C294221F
:10059B008F34C2A6C2A5C2A7120564853480D2A728
:0605AB00120564C2A72244
:1005B1008F34D2A6C2A5C2A7120564853480D2A702
:0605C100120564C2A7222E
:10058100C2A6C2A5C2A77F3812059B7F0E12059B8A
:0A0591007F0612059B7F0102059B07
:10056400E4FFFEE4FDFC0DBD00010CED64C84C701D
:0C057400F50FBF00010EEF640A4E70E7A7
:010580002258
:0D061D000B0A3031323334353637383900AE
:06064400E4FF0FBF64FC9F
:01064A00228D
:0B000E00758911E4F58DF58BD2AB2253
:100395007F0112059BAF8CEFFEAD8A7C00E42DF545
:1003A50009EC3EF508FCAD09E41201297BE37AA5C9
:1003B500799B783C12001E1201628E298F2A7C00DF
:1003C5007D641201E3AB07AE29AF2A7C007D641280
:1003D50001E37E007F0ACFCDCFCECCCE1201E38ED6
:1003E5002B8F2CAE29AF2A7C007D641201E37E00A1
:1003F5007F0ACFCDCFCECCCE1201E38C2D8D2EAF83
:1004050003740A2FF8E6FF1205B1740A252CF8E6E5
:10041500FF1205B1740A252EF8E6FF1205B1E4F5C1
:070425008DF58BAE29AF2A13
:01042C0022AD
:0E05FF0000007F0B7E827D6FDDFEDEFCDFFAEA
:01060D0022CA
:0E060E0000007F167E037DE3DDFEDEFCDFFADA
:01061C0022BB
:1005C700EF1FAA0670011E4A600BE4FDEDC3940DF0
:0505D70050EE0D80F75D
:0105DC0022FC
:10001E00EC4D6011E8497017ED33EC3304600DE4DC
:10002E00FCFFFEFD22E933E8330470F80201CE1224
:10003E00019958046009E4CC248150062850090225
:10004E0001D82840030201D5C0E0EB4A7044B980C4
:10005E0006D0E0FB0201C4EF4E701CBD8008EBFF22
:10006E00EAFEE9FD80EBE98DF0A4FEE5F002010762
:10007E00E9CDF9EAFEEBFFEF89F0A4FCE5F0CE89BD
:10008E00F0A42EFFE435F0CD89F0A42DFEE435F07A
:10009E008067EF4E7005BD80D780C3EF8BF0A4ACA8
:1000AE00F0EE8BF0A42CFCE435F0F8EF8AF0A42CE3
:1000BE00E5F038FCE433CB8DF0A42CFCE5F03BF8F6
:1000CE00EE8AF0A42CFCE5F038F8E433CF89F0A4E6
:1000DE002CFCE5F038CF3400CE89F0A42FFFE5F0EC
:1000EE003EFEE433C98DF0A42EFEE5F039CD8AF044
:1000FE00A42FFFE5F03EFEE43DFD33D0E0FB5007BC
:10010E000BBB000F0201D8EC2CFCEF33FFEE33FEDD
:06011E00ED33FD0201B00B
:1001240075F020800E75F010800575F0087D007E56
:10013400007F003392D530D503120238EC334010DF
:10014400EF33FFEE33FEED33FDEC33FCD5F0ED225F
:0E015400E5F0247EA2D513CC92E7CDCEFF229B
:10016200EDD2E7CD33EC3392D524814006E4FFFE95
:10017200FDFC22FCE4CFCECDCC24E0501174FF80F4
:10018200EDC3CC13CCCD13CDCE13CECF13CF047091
:07019200F030D5DE02023857
:10019900E9D2E7C933E833F892D5EDD2E7CD33ECAC
:0701A90033FC5002B2D52225
:1001B000EC30E7100FBF000C0EBE00080DBD0004B0
:1001C0000BEB6014A2D5EB13FCED92E7FD2274FF5C
:1001D000FCFDFEFF22E480F8A2D574FF13FC7D80B5
:0301E000E480EFC9
:0300000002042DCA
:0C042D00787FE4F6D8FD75813402047479
:1001E300BC000BBE0029EF8DF084FFADF022E4CC00
:1001F300F875F008EF2FFFEE33FEEC33FCEE9DECC9
:10020300984005FCEE9DFE0FD5F0E9E4CEFD22ED0E
:10021300F8F5F0EE8420D21CFEADF075F008EF2F58
:10022300FFED33FD4007985006D5F0F222C398FD49
:050233000FD5F0EA22E6
:0E023800C3E49FFFE49EFEE49DFDE49CFC22D7
:100439000205DDE493A3F8E493A34003F68001F2F7
:1004490008DFF48029E493A3F85407240CC8C333C4
:10045900C4540F4420C8834004F456800146F6DF93
:10046900E4800B010204081020408090061DE47E00
:10047900019360BCA3FF543F30E509541FFEE49388
:10048900A360010ECF54C025E060A840B8E493A34F
:10049900FAE493A3F8E493A3C8C582C8CAC583CA7A
:1004A900F0A3C8C582C8CAC583CADFE9DEE780BE32
:01062A0000CF
:00000001FF
