:080209001201C012000380FE87
:1001C000C29FD29ED29C53890F758BED758DFDC257
:0801D000ABD28ED2ACD2AF22FB
:0300230002011CBB
:10011C00C0E0C0F0C083C082C0D075D000C000C0A9
:10012C0001C002C003C004C005C006C007758BED3A
:10013C00758DFDC29830980A859919C298AF19121D
:10014C0001FFD007D006D005D004D003D002D001D7
:0D015C00D000D0D0D082D083D0F0D0E032DF
:1001D8004C43445F7465737420737563636573730C
:0101E8000016
:0B019800C2A5C2A71201A38B80D2A752
:1001A300E4FFFEE4FDFC0DBD00010CED64C84C70E2
:0C01B300F50FBF00010EEF640A4E70E76C
:0101BF00221D
:0A01F500AB07C2A6120198C2A722B0
:0A01FF00AB07D2A6120198C2A72296
:10000300C2A6C2A5C2A77F381201F57F0E1201F561
:0A0013007F061201F57F010201F5DE
:1001690078087C007D007BFF7A0179D87E007F11B9
:100179001200F6120003900000AF8274082FF8E60F
:0F018900FF1201FFA3E5826410458370EC80FE36
:030000000201E911
:0C01E900787FE4F6D8FD75811902020948
:10002600E709F608DFFA8046E709F208DFFA803EBC
:1000360088828C83E709F0A3DFFA8032E309F608A9
:10004600DFFA8078E309F208DFFA807088828C8311
:10005600E309F0A3DFFA806489828A83E0A3F608C5
:10006600DFFA805889828A83E0A3F208DFFA804C9F
:1000760080D280FA80C680D4806980F28033801076
:1000860080A680EA809A80A880DA80E280CA8033DF
:1000960089828A83ECFAE493A3C8C582C8CCC58357
:1000A600CCF0A3C8C582C8CCC583CCDFE9DEE78027
:1000B6000D89828A83E493A3F608DFF9ECFAA9F0A6
:1000C600EDFB2289828A83ECFAE0A3C8C582C8CCFC
:1000D600C583CCF0A3C8C582C8CCC583CCDFEADE15
:1000E600E880DB89828A83E493A3F208DFF980CC77
:1000F60088F0EF60010E4E60C388F0ED2402B40470
:100106000050B9F582EB2402B4040050AF23234516
:06011600822390007673C5
:00000001FF
